:020000040800F2
:10000000200900202D2A0008092A00080B2A0008D0
:100010000D2A00080F2A0008112A0008000000001D
:10002000000000000000000000000000132A00088B
:10003000152A000800000000172A0008192A0008E5
:10004000612A0008652A0008692A00086D2A00084C
:10005000712A0008752A0008792A00087D2A0008FC
:10006000812A0008852A0008892A00088D2A0008AC
:10007000912A0008952A0008992A00089D2A00085C
:10008000A12A0008A52A0008A92A0008AD2A00080C
:10009000B12A0008B52A0008B92A0008BD2A0008BC
:1000A000C12A0008C52A0008C92A0008CD2A00086C
:1000B000D12A0008D52A0008D92A0008DD2A00081C
:1000C000E12A0008E52A0008E92A0008ED2A0008CC
:1000D000F12A0008F52A0008F92A0008FD2A00087C
:1000E000012B0008052B0008092B00080D2B000828
:1000F000112B0008152B0008192B00081D2B0008D8
:10010000212B0008252B0008292B00082D2B000887
:10011000312B0008352B0008392B00083D2B000837
:10012000412B0008452B0008492B00084D2B0008E7
:10013000512B0008552B0008592B00085D2B000897
:10014000612B0008652B0008692B00086D2B000847
:10015000712B0008752B0008792B00087D2B0008F7
:10016000812B0008852B0008892B00088D2B0008A7
:10017000912B0008952B0008992B00080000000027
:100180009D2B0008A12B0008A52B0008A92B000817
:10019000AD2B0008B12B0008B52B0008B92B0008C7
:1001A000BD2B0008C12B0008C52B0008C92B000877
:1001B000CD2B0008D12B0008D52B0008D92B000827
:1001C000DD2B0008E12B000800000000E52B0008F3
:1001D000E92B0008ED2B0008F12B0008F52B000897
:1001E000F92B0008FD2B0008012C0008052C000845
:1001F000092C00080D2C000838B5040001D101209D
:1002000032BD00F04CF818B900F045F800F09DFB45
:10021000FFE70220211D6870206800F046F90120E8
:100220006870002032BD03D00A6842F001020A6003
:10023000002010BD38B5040001D1012032BD00F00E
:100240002EF818B900F027F800F032FCE1E710B5FD
:1002500000F011F800F00AF81CBFDFF850008142EE
:1002600000F00EF818BFB2F5803FDCE72168DFF838
:1002700040309942704704460122206800F0ABBA32
:1002800003D14A6C42F400424A648A68DFF81800DD
:100290000240062A7047002120462970704704F169
:1002A0003C05687870470000070001000004014029
:1002B0000000014070B500F08CF801D1022070BD43
:1002C00000F08EF852B1042A1CD0082A2FD00C2A34
:1002D00041D0102A54D0142A66D079E030682946DB
:1002E00000F032F93068816941F0080181613068BD
:1002F000826922F00402826131688B6928690343B4
:100300008B6165E03068294600F04AF93068816900
:1003100041F4006181613068826922F48062826107
:10032000306881692A6941EA0221816150E03068C0
:10033000294600F065F93068C16941F00801C161E2
:100340003068C26922F00402C2613168CB69286951
:100350000343CB613CE03068294600F080F9306807
:10036000C16941F40061C1613068C26922F48062F0
:10037000C2613068C1692A6941EA0221C16127E08E
:100380003068294600F08AF93068416D41F0080173
:1003900041653068426D22F00402426531684B6D60
:1003A000286903434B6513E03068294600F098F94B
:1003B0003068416D41F4006141653068426D22F45E
:1003C000806242653068416D2A6941EA02214165D7
:1003D00052E0064606F13C0420780D46012870479D
:1003E0000121022021706070704770B500F057F84D
:1003F00001D1022070BD012202232270DFF82C03FC
:1004000063702A689368034093600868060018BF09
:1004100010282DD0202818BF302829D0402823D0DC
:10042000502816D0602818D0702803D0B0F5005F8F
:1004300007D021E000F024F82868816841F07701B6
:1004400005E000F01DF82868816841F48041816072
:1004500012E000F01AF850210BE0CA6849682868D9
:1004600000F095F9602104E000F00FF8402100E071
:100470000146286800F09DF900F00BF870BD0000FF
:10048000CB684A68896828689BE1CA684968286817
:100490006CE101200021607000202170704705464A
:1004A00005F13C04207801287047F0B5DFF8805250
:1004B0000668A842DFF87C42DFF87C32DFF87C7205
:1004C000DFF87CC218BFB0F1804F07D0604518BF7D
:1004D000B84203D0984218BFA0420DD14A6826F016
:1004E00070061643A84218BFB0F1804F17D0604580
:1004F0001CBFB842984212D0A0421CBF914B9842F8
:100500000DD0914A90421CBF904FB84207D0904BFB
:1005100098421FBF8F4A90428F4FB84203D1CB6899
:1005200026F440761E434A6926F080061643A84208
:1005300006608B68C3620E68866212BFA0420969BA
:10054000016301224261F0BDF0B5026A834C52089A
:1005500052000262076A456886690B688A6827F05C
:1005600002072640724C1E431743724BA04218BF2D
:10057000984207D1CA6827F008071743A04227F01E
:10058000040701D0984205D14B6925F440758A696A
:100590001D43154345608661496841630762F0BDAC
:1005A000F0B5026A22F010020262056A43688469AB
:1005B0006B4A0E6825F020058F6814405D4A44EAB6
:1005C00006245B4EB04245EA071518BF904208D199
:1005D00025F08005CF6845EA0715B04225F04005B3
:1005E00001D0904206D14E698A6923F440631643D4
:1005F00043EA860343608461496881630562F0BD14
:10060000F0B5026A554B22F480720262066A4468B1
:10061000C5690A688F6826F400761D40444B15436F
:10062000444A984246EA072618BF904208D126F469
:100630000066CF6846EA0726984226F4806601D015
:10064000904206D14B698A6924F44054134344EA2A
:1006500003144460C5614968C1630662F0BDF0B52A
:10066000026A22F480520262056A4368C4693C4A05
:100670000E6825F4005500F052F845EA07351CBF16
:100680002C4EB04204D123F480434A6943EA8213DA
:100690004360C461496801640562F0BDF0B5026A57
:1006A000304B22F480320262066A4468456D0A6863
:1006B0008F6826F400361D401D4B1543984246EACC
:1006C00007461CBF1B4A904204D124F480344B6976
:1006D00044EA032444604565496881650662F0BDCB
:1006E000F0B5026A22F480120262056A4368446D22
:1006F0001D4A0E6825F4001500F011F845EA07556B
:100700001CBF0C4EB04204D123F480234A6943EA53
:100710008223436044654968C1650562F0BD8F6806
:100720001440034A904244EA062470478800FEFFC2
:100730000000014000040140000C0040000800409F
:1007400000040040004001400044014000480140D6
:1007500000180040001C0040002000408CFFFEFFFD
:10076000FF8CFFFE8FFFFEFFFF8FFFFE30B5036A99
:10077000046A640864000462856923F00A0319436B
:1007800025F0F00545EA02158561016230BD10B51E
:10079000036A23F0100303628369046A23F470433D
:1007A00043EA023324F0A004836144EA01140462A2
:1007B00010BD826822F07002114341F00701816090
:1007C000704710B5846824F47F442143114341EA03
:1007D0000321816010BD30B5036A01F01F010124BF
:1007E0008C4002FA01F1A3430362056A29430162C6
:1007F00030BD30B4002513E050F8042BD30744BFBC
:10080000A9F101039A18091F042942F8045BFAD2DE
:1008100013468C0744BF15809B1CC90748BF1D7039
:1008200050F8041B0029E7D130BC704781B09648CE
:10083000016841F080510160026802F0805200922C
:100840000099426842F480424260406800F480406F
:100850000090009901B0704710B586B0044614228C
:100860000021684600F025F92368884A93425BD14D
:100870008748016841F000710160036803F000736C
:1008800000F05FF842F080620260036803F080636A
:1008900000F057F842F000620260036803F0006362
:1008A00000F04FF842F004020260036803F0040312
:1008B00000F047F842F001020260036803F0010310
:1008C00000F03FF842F002020260036803F0020306
:1008D00000F037F842F040020260036832226D48AF
:1008E00003F040030593059900920223002103229F
:1008F00002910B21049169460193039200F0FAF8EA
:10090000862100F013F8644800F0F4F84FF4005129
:1009100000F00CF8614800F0EDF84FF4205100F0C1
:1009200005F85F4800F0E6F806B010BD022200911D
:1009300003210192002303910B2202936946049242
:100940007047059305990268704781B00068554962
:10095000884209D14C48026842F0020202600068F5
:1009600000F002000090009901B0704710B586B009
:1009700000F03FF823684B4A934215D14448402287
:10098000016841F0010101600368434803F001037D
:100990000093009902230192002102930391049194
:1009A00001A9059300F0A6F806B010BD10B586B0F9
:1009B00000F01FF823683C4A934218D1344801697B
:1009C00041F480210161026902F4802200920099C1
:1009D000036843F00803036002684FF44073334830
:1009E00002F0080200F048F8072100F03FF806B0D6
:1009F00010BD04461422002101A800F05AB838B5F1
:100A000086B0FFF7F6FF2368B3F1A04F2CD1204C3E
:100A10004FF4E8532168204D284641F00101216040
:100A2000226802F0010200F027F80A2100F01EF807
:100A30004FF400710022019101A90292284603920D
:100A400000F058F8606840F080006060616801F074
:100A5000800100910098616941F4804161616069A1
:100A600000F480400090009907B030BD032205914A
:100A7000049201A900F03EB800920099022201936D
:100A800000210292039170474038024000800240EA
:100A900030380240000802400000024000040240DA
:100AA000001802400004004000480040000C0240D2
:100AB000704710B5044610460A460146204600F02D
:100AC00019F9204610BD30B40EE0026843680244B4
:100AD0000830DC0744BFA9F10104E31852F8045BB5
:100AE00043F8045B091FF9D150F8041B0029ECD12D
:100AF00030BC70472DE9F84F4FF0000E704A714B33
:100B0000DFF8C4814FF00F0906468A46DAF8004044
:100B1000012101FA0EF10C408C4240F0C580DAF858
:100B200004504FEA8E00022D18BF122D12D14FEA49
:100B3000DE0506EB850C00F01C0509FA05FBDCF868
:100B4000207027EA0B07DAF810B00BFA05F53D43E1
:100B5000CCF8205037689AF804B04FEA4E0C0325C1
:100B600005FA0CF5ED432F400BF0030B0BFA0CFBD1
:100B70004BEA07073760DAF80470012F18BF022F1D
:100B800003D0112F18BF122F13D1B768DAF80CB0A9
:100B90002F400BFA0CFB4BEA0707B760776827EA90
:100BA0000101DAF80470C7F3001707FA0EF73943AA
:100BB0007160F1680D40DAF8081001FA0CF1294370
:100BC000F160DAF80410CD006ED5D8F8001000F00E
:100BD0000C0041F48041C8F80010D8F8007007F408
:100BE00080470097009909FA00F74FEA9E0153F8F1
:100BF000215025EA070C354DAE4208BF00252CD008
:100C0000334FBE4208BF012527D0324DAE4208BF48
:100C1000022522D0304FBE4208BF03251DD02F4DE4
:100C2000AE4208BF042518D02D4FBE4208BF05258F
:100C300013D02C4DAE4208BF06250ED02A4FBE421F
:100C400008BF072509D0294DAE4208BF082504D0AA
:100C5000274FBE420CBF09250A2505FA00F040EADD
:100C60000C0043F821001168DAF80450E043014019
:100C7000ED0348BF214311605168DAF80450014088
:100C8000AD0348BF214351609168DAF80450014038
:100C9000ED0248BF21439160D1680140DAF80400B9
:100CA000800248BF2143D1600EF1010EBEF10F0F4B
:100CB0007FF62CAFBDE8F18F02B90904816170475E
:100CC000003C014008380140443802400000024026
:100CD0000004024000080240000C024000100240E4
:100CE0000014024000180240001C02400020024094
:100CF0000024024062F30F2262F31F42401810F0FA
:100D0000030308D0C91A1FD3DB0748BF00F8012D21
:100D100028BF20F8022D130030B4144615461039B0
:100D200028BF20E93C00FAD8490728BF20E90C0079
:100D300048BF40F8042D890028BF20F8022D48BF85
:100D400000F8012D30BC7047C91818BF00F8012DFC
:100D5000CB0728BF00F8012D704700002DE9FC41AA
:100D600004460025BCB12078DFF86464C10750D583
:100D7000B26802F00C02042A07D0B06800F00C0040
:100D800008280AD17168480207D53268910340D516
:100D9000606800283DD1012056E16068B0F5803FD1
:100DA0000FD038B9316821F480313160306820F4D7
:100DB000802009E0B0F5A02F08D1316841F48021EE
:100DC0003160306840F48030306007E0326822F4EF
:100DD00080323260316821F480213160606860B116
:100DE00000F00AFA07463168880312D400F004FACA
:100DF000C01B6528F7D3032026E100F0FDF9074664
:100E00003068810305D500F0F7F9C01B6528F7D3DA
:100E1000F1E72078810718D5B26812F00C0F07D0DF
:100E2000B06800F00C00082825D17168480222D46F
:100E30003268910702D5E0680128ACD13168206999
:100E400021F0F80141EAC001316021780A074CD550
:100E50006069002839D0716F41F00101716700F0BD
:100E6000CBF90746706F81073FD400F0C5F9C01B6E
:100E70000228F7D9BFE7E068B8B1316841F0010155
:100E8000316000F0B9F907463068810705D400F0F9
:100E9000B3F9C01B0228F7D9ADE73068216920F00B
:100EA000F80040EAC1003060CFE7306840084000F9
:100EB000306000F0A1F9074631688807C5D500F019
:100EC0009BF9C01B0228F7D995E7706F40084000D6
:100ED000706700F091F90746706F810705D500F043
:100EE0008BF9C01B0228F7D985E72078410761D527
:100EF000326CD00009D4316C012541F0805131644D
:100F0000306C00F0805000900099DFF8D0723868A3
:100F1000C10510D43A6842F480723A6000F06CF96E
:100F200080463868C10506D400F066F9A0EB0800D9
:100F30006528F6D35FE7A068012804D1306F40F040
:100F40000100306713E008B9306F09E00528306F01
:100F500006D140F004003067316F41F0010105E037
:100F6000400840003067316F21F004013167A0680C
:100F700041F2893760B100F03FF98046306F810758
:100F800013D400F039F9A0EB0800B842F6D332E7E9
:100F900000F032F98046306F810706D500F02CF959
:100FA000A0EB0800B842F6D325E71DB1306C20F065
:100FB00080503064A069002845D0B16801F00C0170
:100FC00008293FF4E8AE0228306820F080703060D5
:100FD0002DD100F011F905463168880105D500F0E2
:100FE0000BF9401B0228F7D905E7E069216AA36ADB
:100FF000626A0843E16A40EA8210226B5B085B1E6A
:1010000040EA034040EA016040EA027070603068E4
:1010100040F08070306000F0EFF8044631688801DD
:1010200011D400F0E9F8001B0228F7D9E3E600F03C
:10103000E3F804463168880105D500F0DDF8001BAF
:101040000228F7D9D7E60020BDE8F6812DE9F04166
:101050000400884651D0624E306800F00F004045D1
:1010600002D200F06FF848D12068594D810712D59F
:10107000400703D5A96841F4E051A9602078010731
:1010800003D5AA6842F46042AA60A968A06821F06A
:10109000F0010143A9602178CA0726D560680128BC
:1010A00002D129688A0303E0022803D129688A0152
:1010B00003D422E02B6899071FD5AA68920840EA5A
:1010C0008200A86000F098F80746A868616800F000
:1010D0000C00B0EB810F08D000F08EF8C01B41F27D
:1010E00089329042F1D303202AE0306800F00F00EB
:1010F000804504D200F026F801D0012020E02078BD
:10110000410705D5AA68E06822F4E0520243AA60CC
:1011100021780A0706D5A868216920F4604040EAD2
:10112000C100A86000F018F8AA682E49294BC2F344
:101130000312895CC8401860002000F063F80020AA
:10114000BDE8F0813168090948EA0111316032686F
:1011500002F00F024245704730B5244C606800F041
:101160000C00042802D0082802D019E0204830BD25
:1011700000232268206825684102C5F3881002F028
:101180003F024CBF1A491449A1FB000100F05AF874
:101190002168C1F30141491C4900B0FBF1F030BDA9
:1011A0000D4830BD0B48006870470A480E4A006879
:1011B00013681049C3F3822206E006480A4A006811
:1011C00013680C49C3F34232895CC8407047000081
:1011D000003802400C0000200024F40000700040A1
:1011E000003C024040290008083802400438024010
:1011F00000127A00582A000801484068704700BF72
:101200000000002038B50D4D04462A780C4B1868B4
:101210004FF47A71B1FBF2F2B0FBF2F000F0CDF8CE
:1012200050B9102C08D2002221464FF0FF3000F0B8
:10123000A7F8AC60002032BD012032BD00000020C4
:101240000C000020D3BBD9B1B2F5803F5BD2022A9B
:101250001ED98C46B1FBF2F102FB11C31B0443EA19
:101260001043B3FBF2FC02FB1C3380B240EA0343A1
:10127000B3FBF2F002FB103240EA0C40002370474F
:10128000022A05D98446B0FBF2F002FB10C2704777
:101290004AB105D100F0010249085FEA3000704709
:1012A00000220023704700F0A7B80B0002000021C5
:1012B00000207047F7D3002200237047904271EB63
:1012C000030CF2D370B5B1FA81F4B3FA83F52C1B99
:1012D000A340C4F1200532FA05F63343A2405FF083
:1012E0000046E64002E05B085FEA3202841A71EBD6
:1012F000030524BF204629467641F4D302000B00A3
:101300003000002170BD70B5B1FA81F4B2FA82F5F7
:10131000C4F120046419B4F12006DAD3B2405FF0BE
:101320000044F440002502E052085FEA3303C61A85
:1013300071EB020E24BF3046714664416D41F3D318
:1013400002000B002000290070BD0000090102000E
:1013500002D4244881547047234B02F00F021A44F0
:1013600002F8041C7047214B4FF6FF021968000277
:1013700000F4E060114008431D49084318607047BD
:1013800070B51A4B1C68C4F302230124C3F107058E
:10139000052D2EBF0F2504FA05F56D1E1E1D072E07
:1013A00034BF0023DB1E2940994004FA03F35B1E7F
:1013B0001A401143BDE87040C8E7401EB0F1807F7D
:1013C00010B501D3012010BD0A4C0F2160604FF011
:1013D000FF30FFF7BBFF00220721A2600020216041
:1013E00010BD000000E400E018ED00E00CED00E0AE
:1013F0000000FA0510E000E0704700002DE9FC470E
:10140000064600253078A846DFF87C74C1070AD567
:10141000BA6822F40002BA60BB68716B0B43BB6010
:10142000706B00B901253068DFF8604401030ED508
:10143000A268F06B22F440120243A260F06BB0F598
:10144000801F08BF012502D008B94FF0010830689D
:10145000C1020ED5A268306C22F440020243A260A1
:10146000306CB0F5800F08BF012502D008B94FF0ED
:1014700001083068C10148BF012580065ED5396C7E
:10148000DFF80C9441F080513964386C00F08050E2
:1014900000900099D9F8000040F48070C9F800006D
:1014A000FFF7AAFE8246D9F80010C80507D4FFF757
:1014B000A3FEA0EB0A006528F5D30320CEE1386F28
:1014C00010F440701EBF316B01F4407188421DD092
:1014D000386F396F41F4803139673A6F20F44070CA
:1014E00022F480323A673867386FC1070ED5FFF7AC
:1014F00083FE8146386F810708D4FFF77DFEA0EB9D
:10150000090041F289329042F4D3D6E7316B01F4FD
:101510004070B0F5407F07D1BA68DFF8780301402A
:1015200022F4F812114302E0B96821F4F811B9600D
:10153000386F316BC1F30B01084338673078C1064F
:1015400007D5A26822F08072A260A168B06B014347
:10155000A1603268510405D5E368706E23F440330E
:101560000343E36031680A0405D5E368B06E23F4F1
:1015700040230343E3603168CA0305D5E368F06E96
:1015800023F440130343E36031688A0305D5E3681D
:10159000306F23F440030343E36031784A0605D5F6
:1015A000E368706C9B0840EA8303E36031780A06C5
:1015B00005D5E368B06C23F00C030343E3603168A6
:1015C000CA0505D5E368F06C23F030030343E360FC
:1015D00031688A0505D5E368306D23F0C003034305
:1015E000E36031684A0505D5E368706D23F4407304
:1015F0000343E36031680A0505D5E368B06D23F461
:1016000040630343E3603168CA0405D5E368F06DC5
:1016100023F440530343E36031688A0405D5E3684B
:10162000306E23F440430343E36031684A0205D53A
:10163000E368B06F23F080630343E36031688A029C
:101640000BD5E368F06F23F000630343E360F16FB1
:10165000B1F1006F08BF4FF001083068010748BFC3
:101660004FF00108400305D5E168706F21F040712B
:101670000143E16031680A0206D5E368D6F88000CC
:1016800023F080530343E360326806F18401530181
:1016900005D5E06820F0005208681043E060326829
:1016A000130105D5A06820F0007248681043A060BF
:1016B0003268D30005D5A06820F0806288681043A6
:1016C000A0601DB93168B1F1007F66D1386820F0A3
:1016D00080603860FFF790FD05463968080105D540
:1016E000FFF78AFD401B6528F7D3E6E63178CA0785
:1016F0000FD5706B68B920682168726800F44030BB
:1017000040EA821001F070610843B16840EA01705C
:1017100020603068020303D5F16BB1F5801F05D05E
:10172000C00211D5316CB1F5800F0DD12068216850
:101730007268F36800F09EF82060A068716A400942
:10174000491E41EA4010A0603068C10106D52068FA
:1017500021683369726800F083F820603068810185
:101760000BD530697268F168000440EA8210B268F3
:1017700040EA016040EA02702060386840F0806012
:101780003860FFF739FD05463968080105D4FFF7D1
:1017900033FD401B6528F7D38FE6B8F1000F5CD00E
:1017A000386820F080503860FFF726FD054639681C
:1017B000880005D5FFF720FD401B6528F7D37CE6A0
:1017C00031680A0301D5F06B18B1C90210D5306C2D
:1017D00070B9606861687269B36900F04BF8606065
:1017E000A068B16A20F4F850491E40EA0120A060C8
:1017F000306881020AD5F26FB2F1006F06D16068DD
:101800006168336A726900F02BF860603078010714
:1018100013D560686168726901F4403141EA821150
:1018200000F070600843F16940EA01706060A268EE
:10183000F06A22F440320243A260396841F08051DC
:101840003960FFF7D9FC04463868810005D4FFF7FA
:10185000D3FC001B6528F7D32FE60020BDE8F687F0
:101860001B0443EA821300F0706001F0E04118436A
:101870000843704700F4403040EA821001F0E04134
:1018800040EA036008437047003802408438024051
:1018900000700040FFFCFF0F38B5040009D004F1D0
:1018A0007005696809B900F01FF800F022F80128F6
:1018B00001D1012032BD606A08B100F02AF800F0C1
:1018C0000BF822F02A02826000F01DF8FFE72046A4
:1018D000BDE8324000F0B0B92068416821F4904181
:1018E0004160206882687047002028702046FFF71A
:1018F0005DB82421696020680268520852000260C5
:10190000204600F00DB82068016841F00101016037
:101910007047204600F02CB9284600F0ACB9000012
:10192000F8B5044686482668002300253768A16874
:101930002269074060690F43E169174307430F437A
:1019400037607268E06822F4405202437260B26805
:10195000A169206A22F430620A4302437948B260E6
:10196000794A964221D1016801F00301032903D885
:10197000DFE801F0693829471020E1694FF6F07679
:10198000B1F5004F40F0A88060B1012800F07F80E1
:10199000022800F07F80042800F08180082800F0F1
:1019A00087808DE0FFF701FC7BE068498E420CD117
:1019B000006810F00C0068D0042813D0082802D06A
:1019C0000C281ED0D8E70220D7E761498E420BD100
:1019D000006810F0300058D0102803D02028F2D032
:1019E0003028EEE70420C8E75A498E420BD1006840
:1019F00010F0C00049D04028F4D08028E3D0C0289F
:101A0000BAD10820B9E754498E420CD1006810F4CD
:101A100040703AD0B0F5807FE4D0B0F5007FD2D0EE
:101A2000B0F5407FCDE74D4A96420ED1016811F4E2
:101A3000406108D0B1F5806FD4D0B1F5006FC2D04D
:101A4000B1F5406FBDE7012097E7454A96420CD1BA
:101A5000006810F4405018D0B0F5805FC2D0B0F5E7
:101A6000005FB0D0B0F5405FABE73E498E4283D116
:101A7000026812F4404208D0B2F5804FB2D0B2F5FD
:101A8000004FA0D0B2F5404F9BE7002075E7FFF76D
:101A900094FB06E06068344901EB50010CE0FFF76D
:101AA0005BFB61684A0802EB4002B2FBF1F305E020
:101AB0006068410801F58031B1FBF0F39BB200E0B2
:101AC0000125A3F11000B04233D221681E40C3F3B8
:101AD00042000643CE602DE040B1012809D0022823
:101AE0000AD004280DD0082813D01AE0FFF75DFBB8
:101AF00009E0FFF762FB06E060681C4901EB50015A
:101B00000BE0FFF729FB616800EB5100B0FBF1F33C
:101B100005E06068410801F50041B1FBF0F39BB2BC
:101B200000E00125A3F11000B04202D22168CB6091
:101B300000E001250020206660662846F2BD000016
:101B4000F369FFEF9038024000100140004400406C
:101B500000480040004C004000500040001401408C
:101B600000780040007C00400048E8010024F400B8
:101B700010B590F82410CA0706D502685368816A28
:101B800023F400330B43536090F82420910706D5CB
:101B900002685368C16A23F480330B43536090F8A2
:101BA0002420510706D502685368016B23F4802373
:101BB0000B43536090F82420110706D50268536840
:101BC000416B23F400430B43536090F82420D1066B
:101BD00006D502689368816B23F480530B439360AE
:101BE00090F82420910606D502689368C16B23F40F
:101BF00000530B43936090F82420510610D50268DF
:101C00005368016C23F480130B435360036CB3F5EA
:101C1000801F05D15468416C24F4C0040C43546007
:101C200090F82420110606D501684A68806C22F4D9
:101C3000002202434A6010BD7CB5054605F17004E0
:101C40000020E060FFF7D8FA296803460A68100709
:101C50000AD56FF07E46002200964FF40011FFF780
:101C60005BFE08B1032076BD202000226060A060EA
:101C70000020227076BD2DE9F04105460E469046C3
:101C80001F46069C2868C1693140B1420CBF012043
:101C9000002040451CD114F1010FF3D0FFF7ACFA3E
:101CA000C01B844201D3002CECD1286800230168BA
:101CB00021F4D07101602868202182685208520006
:101CC000826005F17000416081600370032000E0D4
:101CD0000020BDE8F0810000FEB504460020009021
:101CE0000CB90120FEBD04F14405287820B900217B
:101CF00020466970FEF7B0FDDFF86C034FF48056A4
:101D0000026842F480420260006800F48040019062
:101D10000199DFF858130A6822F400020A600B6880
:101D2000206A03430B602068815941F00101815111
:101D3000FFF762FA074620688259D1070AD5FFF7F4
:101D40005BFAC01B40F2F5129042F4D3032000214D
:101D5000287071E00669FFF725FADFF81413DFF841
:101D60001423091826F01C06914238BF46F00806D5
:101D70001BD3DFF80433DFF804131B188B4238BF82
:101D800046F00C0621BFDFF8F8221218DFF8F43213
:101D90009A420AD3DFF8F012DFF8F0720818B8425E
:101DA00034BF46F0040646F0100620684FF40042A7
:101DB00000210661204600F0AAF8002854D1FF2037
:101DC00000F072F96068002842D0FFF715FA074664
:101DD00041F2893600F05BF8FFF70EFAC01BB04203
:101DE00024D200984107F5D54FF4805200212046B7
:101DF00000F08DF8002837D1FFF7FEF9074600F014
:101E000046F8FFF7F9F9C01BB0420FD200988106DF
:101E1000F5D56A461F21204600F03DF820BB00980A
:101E2000C1064CBF4FF40062002207E000F02CF81E
:101E300001200021287003206970FEBDE260009837
:101E4000410759BF4FF48040A0600022A26014E017
:101E5000A068E2680021C003000C520340EA12426D
:101E6000204600F054F820B100F00EF80120287050
:101E7000FEBD40F6FF7000F017F9002100F005F8F4
:101E8000012028700020FEBD0121204676E06A4630
:101E900001212046FFE72DE9F041044604F1440604
:101EA00030780F461546822802D10220BDE8F08125
:101EB0008221BF013170206807F4F8670169228A26
:101EC000D20202F4784201F01C0111430F4347F0A3
:101ED00001070761FFF790F9804601E02068076974
:101EE000F9070CD5FFF788F9A0EB0800B0F5803FA3
:101EF000F4D301200021307003207170D6E72268EE
:101F00000121506980B2286000203170CEE7F8B519
:101F1000044604F1440528780E46422801D10220E7
:101F2000F2BD4221B6012970206892B206F4F8662B
:101F30000169238A42612068DB0203F4784301F0DF
:101F40001C0119430E4346F003060661FFF754F9DE
:101F5000074601E021680E69F0070BD5FFF74CF941
:101F6000C01BB0F5803FF5D301200021287003206D
:101F70006970F2BD012200202A70F2BD70B50446DE
:101F800029B14FF400604FF48041E060A160E06946
:101F900025683F4A00282E68A168E0680CBF4FF40E
:101FA0008063002316400E430643334343F400731B
:101FB00001202B602D6800F077F820684021056033
:101FC0004160456800F06CF8216800204D60886031
:101FD000C8608A694FF64170024042F080028A610F
:101FE0008D6900F05DF8206800218561C161C569D7
:101FF00000F056F8216841F218022648CD618B584E
:10200000034043F0087343F0040301208B508D58C4
:1020100000F04AF82068204900F580508561016091
:10202000056800F03DF8206800F580500560A16962
:10203000012905D1C26942F4803242F04002C261F6
:10204000606916490379427943EA02230B6082787A
:10205000C47843780078120442EA046242EA032218
:1020600002434A6070BD0000443802400438014019
:1020700000D3CEFEC0E1E40040F1E9FD40787D01EF
:1020800000796CFC005A6202001F0AFA80F0FA0222
:102090000F8120FF233FDEF88020C10240800240F4
:1020A000012000F001B8000038B50446FFF7A4F89D
:1020B00014F1010F054602D0044801786418FFF7B7
:1020C0009BF8401BA042FAD331BD00BF00000020A6
:1020D00038B58EB0CA4C00F0ADF900F0FCF814220F
:1020E00000216846C74DFEF7E4FCC748016841F08F
:1020F00004010160026802F0040200F0E8F843F015
:1021000080030360026802F0800200F0E0F843F010
:1021100001030360026802F0010200F0D8F843F006
:1021200002030360026802F0020200F0D0F843F0FC
:1021300008030360026802F0080200F0C8F80022F9
:1021400043F040030360006800F0400005900599EB
:1021500020464FF48141FEF7AFFD00224021284682
:10216000FEF7AAFD4FF40051A84A00F0AAF8A848CB
:10217000FEF7C0FC4FF48141012200F0A2F8204696
:1021800003930024FEF7B6FC402201230092694627
:102190000193284602940394FEF7ACFC802101943D
:1021A0000091694602942846FEF7A4FC994C9A488F
:1021B0002060802000228DF8010022824FF4000070
:1021C00001210023E1222062002561608DF80030AA
:1021D00020468DF802208DF80330ADF80450C4F885
:1021E00014D0A361E361FFF777FD102200210AA854
:1021F000FEF75FFC0C2200216846FEF75AFC1C2209
:10220000002103A8854DFEF754FC4FF496518448F5
:10221000696000222860C8238021AA60EB602846FC
:102220002A61A961FDF7E8FF4FF480500AA90A90DE
:102230002846FEF7DAF82846FDF7FCFF002128467D
:1022400000910291694600F001F960216422039136
:1022500004210492002307910022059303A9284634
:10226000FEF728F828460025FEF780FB4FF4E13200
:1022700004F24C40426000236A4983610C220160F1
:102280008360C56003614261C36103624362FFF71B
:1022900003FB02224FF0A040626506212266012264
:1022A000A06404F14800E164A5656266A566E56680
:1022B0006267A56700F0F8F800F065F800F065F8CF
:1022C000FAE7009100230192694602937047059254
:1022D00005990368704700B5B7B03422002106A8FD
:1022E000FEF7E7FB1422002101A8FEF7E2FB902293
:1022F000002113A8FEF7DDFB00F040F94A484FF437
:10230000A023016841F080510160006800F0805016
:10231000009000994548026822F4404242F480420D
:1023200002600068012200F440400090009906928B
:102330004FF4800202210D920C91042160220E9133
:102340000F92022104220793109106A81192FEF722
:1023500005FD00F01BF90F21022201914FF480517D
:102360000023049102920321039301A80593FEF731
:102370006DFE2F490022139113A826923292FFF787
:102380003DF837B000BD38B521E070B50A244FF4F0
:102390007A75224E00213046FDF759FF3268C82079
:1023A0005563FFF781FE316800204863C820FFF7BE
:1023B0007BFE30684563C820FFF776FE3068002159
:1023C00041632846FFF770FE641EE3D170BD0A2406
:1023D000124D00212846FDF73AFF2B684FF47A7220
:1023E0004FF4FA705A63FFF75FFE296800204863D4
:1023F0004FF4FA70FFF758FE641EEAD131BD0000B9
:102400000004024000180240303802400000111061
:10241000000802401000002000800240DC04002080
:102420000004004000480040403802400070004076
:102430000001200080B50320FEF795FF0020FEF785
:10244000E1FEFEF7F3F9002002BD0000F0B500F157
:102450003C042278012A01D10220F0BD012302228E
:10246000237062700E4A056895421CBF0D4A954262
:102470006E68AF6803D14B6826F470061E4326F0E1
:1024800070068A68096827F080070E4300216E6095
:102490001743006801228760002062702170F0BD40
:1024A0000000014000040140F8B504008AB04ED09D
:1024B00004F56F75687820B9002120462970FEF771
:1024C0009EFA03266E70206800F0D1F883B000F009
:1024D00050F80EBC206800F093F8002835D1206831
:1024E00000210027002600F0C8F800211C200EE083
:1024F00010FB01F2012322443C325370002311707F
:10250000D180491CD670C9B29760D36056616268A9
:102510009142EDD300210DE010FB01F20023224493
:1025200002F5FE721170491C5370C9B2D6709760E3
:10253000D360566162689142EED383B000F019F81F
:102540000EBC206800F0ADF818B1022068700120C0
:102550000DE084F8386001206870626A012A04BFC7
:10256000204600F0A5F9206800F078F900200BB0B3
:10257000F0BD211D6846342200F0AEB90248016862
:1025800041F4807101607047007000407CB500F03C
:1025900023F840F4803000F01CF806466068C10360
:1025A00006D4FEF729FE801BA842F7D3032076BD90
:1025B000206840F4003000F00CF80646616888039B
:1025C00005D4FEF719FE801BA842F7D3EEE70020E2
:1025D00076BD2060FEF710BE0848074C016840F247
:1025E000E93541F080510160006800F080500090B2
:1025F0000099206870470000007000404038024099
:102600000EB418B504460898012817D1A16BDFF85D
:10261000900221F48031A163E2680240E260E16847
:1026200021F44011E1600F98012803D1E16841F4E1
:102630008011E160204600F01DF90AE0E06840F0FA
:102640004000E060204600F015F9A16B41F48031B4
:10265000A1630699012907D1A26842F00602A2608F
:10266000A16841F02001A16012BC5DF810FB8168F7
:102670004908490081600020704780B5C26801297F
:1026800022F0C042C26005D1C16841F00051C16072
:102690003220EBE019B9C16841F08041F7E7012031
:1026A00002BD0EB42DE9F043054604464FF0000983
:1026B0000021002004EB8102491C0F29C2F804010B
:1026C000F8D3DDF84480A06BB8F1000F0BD120F4F3
:1026D0000010A063216841F040012160226842F0AF
:1026E0008002226002E040F40010A063002105F5A2
:1026F0006062116005F50067386838600C98012841
:1027000002D1099A3AB103E0032803D1099810B124
:10271000012100E00321204600F098F81021204616
:1027200000F078F808B14FF00109204600F081F878
:1027300008B14FF0010900204FF67F3338614FF0A8
:10274000904C78614FF0006EF8612A46002603E055
:102750000E600E61401C8B60079988420FD202EB1D
:10276000401101F510610D68002DF1D5002806BF5C
:1027700002F51065C5F800E0C1F800C0E9E70020E7
:1027800003E00E600E61401C8B60079988420FD2F7
:1027900002EB401101F530610D68002DF1D50028E4
:1027A00006BF02F53065C5F800E0C1F800C0E9E7F2
:1027B000386920F4807038610A98012808D1DFF860
:1027C000E41039633A6B42F4803242F003023A6318
:1027D000A6616FF08042626118B9A06940F01000F4
:1027E000A061A269DFF8C0100A43A2610D9818B178
:1027F000A16941F00801A161B8F1010F05D1A069FB
:1028000040F0804040F00400A0614846BDE8F0037D
:102810005DF810FB890141F020010161DFF88C10A7
:10282000491E04D002699306FAD4002070470320A1
:10283000704710210161DFF87410491E04D002694D
:10284000D306FAD4002070470320704700F50060DB
:1028500002681143FFE701600020704780B500F572
:102860000060416841F0020141600320FFF71CFC59
:10287000002002BDDFF834201146491E0DD0036947
:10288000002BFAD5016941F001010161521E04D00B
:102890000169CB07FAD4002070470320704700007D
:1028A000BFFFBDFF0001800000383C80410D0300E8
:1028B000016800F57D700122002382600370886941
:1028C00040F0006088614A6D002042F0805242F082
:1028D00003024A65704700004AB1000011F8013B4D
:1028E000521E00F8013B1CBF11F8013BF8E770478E
:1028F00010B50E480023016841F4700101600C49D5
:102900000A680C4842F001020A600B4A8B600C68AE
:1029100004404FF000600C6000244A600B6823F410
:1029200080230B60CC600549086010BD88ED00E095
:1029300000380240FFFFF6FE1030002408ED00E0F2
:10294000000000000000000001020304060708095F
:1029500010B5074979441831064C7C44163404E01C
:102960000A68081D114488470146A142F8D110BDEC
:102970002C0000004C0000004EF68851CEF2000101
:10298000086840F470000860BFF34F8FBFF36F8F8B
:102990004FF00070E1EE100A7047000057DEFFFFB5
:1029A0000C05000010000020000000001BE1FFFFEC
:1029B000100000008800000000000020000000005F
:1029C00000F00DF8002801D0FFF7C2FFAFF3008040
:1029D0000020AFF30080FFF77BFB00F002F801203E
:1029E000704700F001B800000746384600F002F8D2
:1029F000FBE7000080B5AFF30080024A1100182009
:102A0000ABBEFBE7260002007047FEE7FEE7FEE7ED
:102A1000FEE770477047704700F000B80248416811
:102A200002788A1842607047000000200148804701
:102A300001480047F12800084D2A00080100000065
:102A400000000000100000000024F400AFF300803C
:102A5000FFF792FFFFF7B4FF00000000010203043C
:102A6000FFF7FEBFFFF7FEBFFFF7FEBFFFF7FEBF9A
:102A7000FFF7FEBFFFF7FEBFFFF7FEBFFFF7FEBF8A
:102A8000FFF7FEBFFFF7FEBFFFF7FEBFFFF7FEBF7A
:102A9000FFF7FEBFFFF7FEBFFFF7FEBFFFF7FEBF6A
:102AA000FFF7FEBFFFF7FEBFFFF7FEBFFFF7FEBF5A
:102AB000FFF7FEBFFFF7FEBFFFF7FEBFFFF7FEBF4A
:102AC000FFF7FEBFFFF7FEBFFFF7FEBFFFF7FEBF3A
:102AD000FFF7FEBFFFF7FEBFFFF7FEBFFFF7FEBF2A
:102AE000FFF7FEBFFFF7FEBFFFF7FEBFFFF7FEBF1A
:102AF000FFF7FEBFFFF7FEBFFFF7FEBFFFF7FEBF0A
:102B0000FFF7FEBFFFF7FEBFFFF7FEBFFFF7FEBFF9
:102B1000FFF7FEBFFFF7FEBFFFF7FEBFFFF7FEBFE9
:102B2000FFF7FEBFFFF7FEBFFFF7FEBFFFF7FEBFD9
:102B3000FFF7FEBFFFF7FEBFFFF7FEBFFFF7FEBFC9
:102B4000FFF7FEBFFFF7FEBFFFF7FEBFFFF7FEBFB9
:102B5000FFF7FEBFFFF7FEBFFFF7FEBFFFF7FEBFA9
:102B6000FFF7FEBFFFF7FEBFFFF7FEBFFFF7FEBF99
:102B7000FFF7FEBFFFF7FEBFFFF7FEBFFFF7FEBF89
:102B8000FFF7FEBFFFF7FEBFFFF7FEBFFFF7FEBF79
:102B9000FFF7FEBFFFF7FEBFFFF7FEBFFFF7FEBF69
:102BA000FFF7FEBFFFF7FEBFFFF7FEBFFFF7FEBF59
:102BB000FFF7FEBFFFF7FEBFFFF7FEBFFFF7FEBF49
:102BC000FFF7FEBFFFF7FEBFFFF7FEBFFFF7FEBF39
:102BD000FFF7FEBFFFF7FEBFFFF7FEBFFFF7FEBF29
:102BE000FFF7FEBFFFF7FEBFFFF7FEBFFFF7FEBF19
:102BF000FFF7FEBFFFF7FEBFFFF7FEBFFFF7FEBF09
:102C0000FFF7FEBFFFF7FEBFFFF7FEBFFFF7FEBFF8
:0400000508002A4D78
:00000001FF
